S011000053616665204C6F636B2E73726563EB
S11300000C9426010C9443010C9443010C94430179
S11300100C9443010C9443010C9443010C9443014C
S11300200C9443010C9443010C9443010C9443013C
S11300300C9443010C9443010C9443010C9443012C
S11300400C9443010C9443010C9443010C9443011C
S11300500C94430151016A0183019C01B401B40170
S1130060B401B401B401B401B401B401B401B401E4
S1130070B401B401B401B401B401B401B401B401D4
S1130080B401B401B401B401B401B401B401B401C4
S1130090B401B40151016A0183019C01C001C20190
S11300A0C401C601C701C701C701C701C701C70110
S11300B0C701C701C701C701C701C701C701C701FC
S11300C0C701C701C701C701C701C701C701C701EC
S11300D0C701C701C701C701C701C701C001C201E8
S11300E0C401C601D401ED0106021F023702370222
S11300F03702370237023702370237023702370234
S11301003702370237023702370237023702370223
S11301103702370237023702370237023702370213
S113012037023702D401ED0106021F0243024502E1
S1130130470249024A024A024A024A024A024A025F
S11301404A024A024A024A024A024A024A024A024B
S11301504A024A024A024A024A024A024A024A023B
S11301604A024A024A024A024A024A024302450237
S113017047024902570269027B028D029F029F02D5
S11301809F029F029F029F029F029F029F029F0263
S11301909F029F029F029F029F029F029F029F0253
S11301A09F029F029F029F029F029F029F029F0243
S11301B09F029F02570269027B028D02CB02D20288
S11301C0D902E002E602E602E602E602E602E602FE
S11301D0E602E602E602E602E602E602E602E602DB
S11301E0E602E602E602E602E602E602E602E602CB
S11301F0E602E602E602E602E602E602CB02D202EA
S1130200D902E0020D0314031B032203280328036D
S11302102803280328032803280328032803280382
S11302202803280328032803280328032803280372
S11302302803280328032803280328032803280362
S1130240280328030D0314031B03220311241FBED8
S1130250CFE5D8E0DEBFCDBF10E0A0E6B0E0EAE035
S1130260F7E102C005900D92A83EB107D9F720E04E
S1130270A8EEB0E001C01D92AE3EB207E1F70E94C5
S113028020060C94830B0C94000090E0FC01E154D4
S1130290F109E432F10508F067C0E65DFF4F0C9404
S11302A09308413059F42AB381E090E002C0880FEA
S11302B0991F6A95E2F7822B8ABB08952AB381E0DD
S11302C090E002C0880F991F6A95E2F78095822317
S11302D08ABB0895413059F427B381E090E002C00D
S11302E0880F991F6A95E2F7822B87BB089527B37D
S11302F081E090E002C0880F991F6A95E2F780952B
S1130300822387BB0895413059F424B381E090E0FF
S113031002C0880F991F6A95E2F7822B84BB089567
S113032024B381E090E002C0880F991F6A95E2F738
S11303308095822384BB0895413059F421B381E030
S113034090E002C0880F991F6A95E2F7822B81BB67
S1130350089521B381E090E002C0880F991F6A9547
S1130360E2F78095822381BB089590E0FC01E1547B
S1130370F109E432F10558F4E25BFF4F0C94930861
S11303806ABB089567BB089564BB089561BB089573
S113039090E0FC01E154F109E432F10508F067C092
S11303A0EE58FF4F0C949308413059F42BB381E07D
S11303B090E002C0880F991F6A95E2F7822B8BBBED
S11303C008952BB381E090E002C0880F991F6A95CD
S11303D0E2F7809582238BBB0895413059F428B30A
S11303E081E090E002C0880F991F6A95E2F7822BA2
S11303F088BB089528B381E090E002C0880F991F5C
S11304006A95E2F78095822388BB0895413059F4B8
S113041025B381E090E002C0880F991F6A95E2F746
S1130420822B85BB089525B381E090E002C0880F3C
S1130430991F6A95E2F78095822385BB0895413020
S113044059F422B381E090E002C0880F991F6A95A5
S1130450E2F7822B82BB089522B381E090E002C0D0
S1130460880F991F6A95E2F78095822382BB0895CD
S113047090E0FC01E154F109E432F10558F4EA5644
S1130480FF4F0C9493086BBB089568BB089565BB3C
S1130490089562BB089590E0FC01E154F109E4324F
S11304A0F10508F04CC0E654FF4F0C94930829B3AF
S11304B081E090E0062E02C0880F991F0A94E2F7AB
S11304C030E08223932302C0959587956A95E2F7DD
S11304D0089526B381E090E0062E02C0880F991F8C
S11304E00A94E2F730E08223932302C0959587951E
S11304F06A95E2F7089523B381E090E0062E02C0E6
S1130500880F991F0A94E2F730E08223932302C0F4
S1130510959587956A95E2F7089520B381E090E078
S1130520062E02C0880F991F0A94E2F730E0822356
S1130530932302C0959587956A95E2F7089581E023
S1130540089541E00E94C8010895CF93DF93C82F16
S1130550D62F462F60E00E9445014D2F61E08C2F7D
S11305600E9445014D2F62E08C2F0E9445014D2FC2
S113057063E08C2F0E944501DF91CF9108956F7045
S113058090E0FC01E154F109E432F105F8F4E2529F
S1130590FF4F0C9493088BB3807F8BBB8BB3682B7A
S11305A06BBB089588B3807F88BB88B3682B68BB16
S11305B0089585B3807F85BB85B3682B65BB08959B
S11305C082B3807F82BB82B3682B62BB0895CF93D2
S11305D0DF93C82FD62F462F64E00E9445014D2F8C
S11305E065E08C2F0E9445014D2F66E08C2F0E9400
S11305F045014D2F67E08C2F0E944501DF91CF917B
S11306000895607F90E0FC01E154F109E432F105C2
S1130610F8F4EE5FFE4F0C9493088BB38F708BBB92
S11306208BB3682B6BBB089588B38F7088BB88B37A
S1130630682B68BB089585B38F7085BB85B3682B21
S113064065BB089582B38F7082BB82B3682B62BB93
S113065008958EBB9FBB6DBBE29AE19AE199FECFF0
S113066008958EBB9FBBE09A8DB30895CF93C82F96
S11306706FE00E94B50164E08C2F0E94A10265E046
S11306808C2F0E94A10266E08C2F0E94A10267E0D9
S11306908C2F0E94A102CF910895FF920F931F9374
S11306A0CF93DF93CDB7DEB760970FB6F894DEBF74
S11306B00FBECDBF082F80E1E0E6F0E0DE01119629
S11306C001900D928A95E1F7F12C41E060E0802FD2
S11306D00E94C80141E061E0802F0E94C80141E00E
S11306E062E0802F0E94C80141E063E0802F0E94F5
S11306F0C80140E06F2D802F0E94C80110E064E023
S1130700610F802F0E944B0281110DC0E1E0F0E0E7
S1130710EC0FFD1F84E0F89EE00DF11D1124E10FA4
S1130720F11D808108C01F5F143049F7F39484E001
S1130730F812CBCF8FEF60960FB6F894DEBF0FBEE2
S1130740CDBFDF91CF911F910F91FF900895E0915C
S1130750E800F091E90041E0608587810E94C801CA
S113076083EF91E00197F1F700C00000E091E80009
S1130770F091E90040E0608587810E94C8010895F6
S11307808F92AF92CF92EF920F93CF93DF93CDB727
S1130790DEB79093E9008093E800FC016083E09168
S11307A0E800F091E9004183E091E800F091E9006C
S11307B022830383E482C582A68287828A85808716
S11307C0DF91CF910F91EF90CF90AF908F900895DC
S11307D0CF93C82FE091E800F091E9008081813047
S11307E081F46C2F82810E943802E091E800F0913C
S11307F0E90040E0648183810E94C8010E94A7034C
S113080058C08181813059F56C2F62956F70828157
S11308100E940103E091E800F091E90040E0648166
S113082083810E94C8010E94A703E091E800F0912F
S1130830E9006C2F82810E940103E091E800F091AD
S1130840E90040E0648183810E94C8010E94A703FB
S113085089EF90E00197F1F700C000002AC06C2FE7
S113086062956F7082810E94BF02E091E800F0916E
S1130870E90040E0648183810E94C8010E94A703CB
S1130880E091E800F091E9006C2F82810E94BF02A0
S1130890E091E800F091E90040E0648183810E94E6
S11308A0C8010E94A70389EF90E00197F1F700C007
S11308B00000CF9108958091E8009091E900892B80
S11308C009F4D2C08FE493EC0197F1F700C0000063
S11308D0E091E800F091E90041E0648183810E94A5
S11308E04501E091E800F091E90041E066818581ED
S11308F00E944501E091E800F091E90041E0608543
S113090087810E944501E091E800F091E90080812F
S11309108130C1F56FEF82810E94B501E091E8005A
S1130920F091E90040E0668185810E94C80185EA72
S11309309EE00197F1F700C0000088E30E94E803FD
S113094089EF90E00197F1F700C000008EE00E946B
S1130950E80389EF90E00197F1F700C0000081E01F
S11309600E94E80383EC99E00197F1F700C00000CE
S113097086E00E94E80389EF90E00197F1F700C058
S11309800000089581818130C1F561E082810E9477
S1130990E702E091E800F091E90040E0668185819A
S11309A00E94C80185EA9EE00197F1F700C00000AB
S11309B088E30E94E80389EF90E00197F1F700C013
S11309C000008EE00E94E80389EF90E00197F1F7C0
S11309D000C0000081E00E94E80383EC99E00197E5
S11309E0F1F700C0000086E00E94E80389EF90E080
S11309F00197F1F700C00000089561E082810E9430
S1130A00A502E091E800F091E90040E0668185816B
S1130A100E94C80185EA9EE00197F1F700C000003A
S1130A2088E30E94E80389EF90E00197F1F700C0A2
S1130A3000008EE00E94E80389EF90E00197F1F74F
S1130A4000C0000081E00E94E80383EC99E0019774
S1130A50F1F700C0000086E00E94E80389EF90E00F
S1130A600197F1F700C000000895CF93C82FE091DB
S1130A70E800F091E90080818130B1F46C2F82812B
S1130A800E943802E091E800F091E90041E06481BD
S1130A9083810E94C8010E94A70389EF90E0019717
S1130AA0F1F700C0000058C08181813059F56C2FE6
S1130AB062956F7082810E940103E091E800F091D9
S1130AC0E90041E0648183810E94C8010E94A70378
S1130AD0E091E800F091E9006C2F82810E9401030B
S1130AE0E091E800F091E90041E0648183810E9493
S1130AF0C8010E94A70389EF90E00197F1F700C0B5
S1130B0000002AC06C2F62956F7082810E94BF0220
S1130B10E091E800F091E90041E0648183810E9462
S1130B20C8010E94A703E091E800F091E9006C2F4E
S1130B3082810E94BF02E091E800F091E90041E067
S1130B40648183810E94C8010E94A70389EF90E019
S1130B500197F1F700C00000CF910895CF93DF9380
S1130B60EC018881882331F021960E943505899112
S1130B708111FBCFDF91CF9108959FEF980F9330B0
S1130B8070F49FEF960F903160F4813019F42FE7E1
S1130B90260F08C0823031F42FEB260F03C020E863
S1130BA001C020E8822F0E94E80389EF90E00197BA
S1130BB0F1F700C00000089581E00E94E80387EA8D
S1130BC091E60197F1F700C0000008950F931F9379
S1130BD0CF93DF93CDB7DEB727970FB6F894DEBF78
S1130BE00FBECDBF9F938F937F936F9380E790E069
S1130BF09F938F938E010F5F1F4F1F930F930E943C
S1130C009908C8010E94AE050FB6F894DEBF0FBE66
S1130C10CDBF27960FB6F894DEBF0FBECDBFDF91D0
S1130C20CF911F910F91089541E00E9445010895CD
S1130C3041E00E94C801089540E00E94C80108955F
S1130C40CF93DF93CDB7DEB729970FB6F894DEBF05
S1130C500FBECDBF81E40E94360382E08F930F2E36
S1130C60F2E48F2EF02DAA24A3940F2EF2E4CF2EBB
S1130C70F02DE12C02E424E441E061E0CE01019690
S1130C800E94C0030E945B0460E083E40E94140697
S1130C9067E083E40E94140688E090E00E94310338
S1130CA00F908F3F910509F031C28FE790E00E94C9
S1130CB0AE0561E082E00E94BD0581E40E944D031F
S1130CC0182F8F3FD1F32FE986E891E0215080401F
S1130CD09040E1F700C00000812F0E943505EFE746
S1130CE0FAE126E0E150F0402040E1F700C00000C6
S1130CF061E082E00E94BD058AE20E9435058FE929
S1130D0096E8E1E081509040E040E1F700C0000047
S1130D1064EA612770E081E090E00E94290381E4A5
S1130D200E944D03182F8F3FD1F3FFE926E881E09D
S1130D30F15020408040E1F700C00000812F0E9464
S1130D4035059FE7EAE1F6E09150E040F040E1F735
S1130D5000C0000062E082E00E94BD058AE20E94B9
S1130D6035052FE986E891E0215080409040E1F775
S1130D7000C0000064EA612770E082E090E00E9415
S1130D80290381E40E944D03182F8F3FD1F3EFE92B
S1130D90F6E821E0E150F0402040E1F700C0000017
S1130DA00E9435058FE79AE1E6E081509040E040EB
S1130DB0E1F700C0000063E082E00E94BD058AE222
S1130DC00E943505FFE926E881E0F150204080408B
S1130DD0E1F700C0000064EA612770E083E090E07E
S1130DE00E94290381E40E944D03182F8F3FD1F301
S1130DF09FE9E6E8F1E09150E040F040E1F700C0FF
S1130E0000000E9435052FE78AE196E021508040DA
S1130E109040E1F700C0000064E082E00E94BD055C
S1130E208AE20E943505EFE9F6E821E0E150F0405E
S1130E302040E1F700C0000064EA612770E084E02C
S1130E4090E00E94290360E070E088E090E00E9456
S1130E5029035CC1F801E382E282E182E0820E941C
S1130E60DC058DE890E00E94AE0561E082E00E941E
S1130E70BD0581E40E944D03F80180838F3FC9F3CF
S1130E80FFE926E881E0F15020408040E1F700C00E
S1130E900000F80180810E943505FFE72AE186E021
S1130EA0F15020408040E1F700C0000061E082E0A2
S1130EB00E94BD058AE20E9435059FE9E6E8F1E05B
S1130EC09150E040F040E1F700C0000081E40E944E
S1130ED04D03F80181838F3FC9F3FFE926E881E0E0
S1130EE0F15020408040E1F700C00000F80181810A
S1130EF00E943505FFE72AE186E0F150204080405A
S1130F00E1F700C0000062E082E00E94BD058AE2D1
S1130F100E9435059FE9E6E8F1E09150E040F04099
S1130F20E1F700C0000081E40E944D03F8018283D0
S1130F308F3FC9F3FFE926E881E0F150204080406B
S1130F40E1F700C00000F80182810E943505FFE747
S1130F502AE186E0F15020408040E1F700C0000023
S1130F6063E082E00E94BD058AE20E9435059FE9A4
S1130F70E6E8F1E09150E040F040E1F700C0000005
S1130F8081E40E944D03F80183838F3FC9F3FFE995
S1130F9026E881E0F15020408040E1F700C00000E5
S1130FA0F80183810E943505FFE72AE186E0F150CC
S1130FB020408040E1F700C0000064E082E00E942D
S1130FC0BD058AE20E9435059FE9E6E8F1E091500B
S1130FD0E040F040E1F700C0000081E090E00E94B2
S1130FE03103A82E82E090E00E943103B82E83E002
S1130FF090E00E943103C82E84E090E00E94310307
S1131000AF24F8019081A9121FC0BF249181B912A5
S11310101BC0CF249281C91217C08F2593818913D5
S113102013C00E94DC058DE990E00E94AE0561E0EA
S113103082E00E94BD058CEA90E00E94AE0567E064
S113104083E40E94180661C0DA94DD2079F10E94DD
S1131050DC058DEB90E00E94AE0561E082E00E9429
S1131060BD058CEC90E00E94AE056D2D70E080E033
S113107090E00E94E60560E083E40E941806FFE326
S113108022E48FE0F15020408040E1F700C00000EE
S113109060E083E40E941C069FE3E2E4FFE09150D9
S11310A0E040F040E1F700C00000D4CE0E94DC052F
S11310B08DEB90E00E94AE0561E082E00E94BD05E8
S11310C08CEC90E00E94AE0560E070E0CB010E94E1
S11310D0E60560E083E40E9418062FE382E49FE0C3
S11310E0215080409040E1F700C000000E94DC05E0
S11310F088ED90E00E94AE05EFE3F2E42FE0E150CA
S1131100F0402040E1F700C00000FFCF0F2EF3E0D5
S1131110DF2EF02D0AEE10E0EE24EA940F2EF4EA0E
S1131120FF2EF02D97CEEE0FFF1F0590F491E02DCA
S11311300994AEE0B0E0EFE9F8E00C945A0B0D89A5
S11311401E8986E08C831A8309838FEF9FE79E8331
S11311508D83AE01475E5F4F6F89788DCE01019616
S11311600E94BB08EF81F885E00FF11F10822E96D4
S1131170E4E00C94760BABE0B0E0E1ECF8E00C9426
S11311804C0B6C017B018A01FC011782168283815E
S113119081FFCCC1CE0101963C01F6019381F70198
S11311A093FD859193FF81917F01882309F4BAC14E
S11311B0853239F493FD859193FF81917F018532C6
S11311C029F4B60190E00E94B20AE7CF912C212CB9
S11311D0312CFFE1F315D8F08B3279F038F48032FA
S11311E079F08332A1F4232D20611DC08D3261F08A
S11311F0803369F4232D216016C0832D8260382E3C
S1131200E32DE4603E2E2AC0F32DF8601DC037FCA8
S11312102DC020ED280F2A3040F08E32B9F436FC70
S113122081C1232D2064322E19C036FE06C08AE007
S1131230989E200D1124922E11C0EAE02E9E200DBE
S11312401124222EF32DF0623F2E08C08C3621F497
S1131250832D8068382E02C0883641F4F70193FD4F
S1131260859193FF81917F018111B3CF982F9F7D49
S11312709554933028F40C5F1F4F9FE399830DC05E
S1131280833631F0833771F0833509F059C021C0BA
S1131290F801808189830E5F1F4F88248394912CE9
S11312A0530113C02801F2E04F0E511CF801A08035
S11312B0B18036FE03C0692D70E002C06FEF7FEF8E
S11312C0C5010E94A70A4C018201F32DFF773F2E2E
S11312D016C0280122E0420E511CF801A080B18002
S11312E036FE03C0692D70E002C06FEF7FEFC501C9
S11312F00E949C0A4C01F32DF0683F2E820133FCBE
S11313001BC0822D90E088169906B0F4B60180E2E5
S113131090E00E94B20A2A94F4CFF50137FC85913B
S113132037FE81915F01B60190E00E94B20A21105C
S11313302A9421E0821A91088114910471F7E8C07B
S1131340843611F0893641F5F80137FE07C0608113
S11313507181828193810C5F1F4F08C0608171810C
S1131360072E000C880B990B0E5F1F4FF32DFF7691
S11313703F2E97FF09C090958095709561957F4F9A
S11313808F4F9F4FF0683F2E2AE030E0A3010E9468
S1131390EE0A882E861845C0853731F4232D2F7E1A
S11313A0B22E2AE030E025C0932D997FB92E8F36D6
S11313B0C1F018F4883579F0B5C0803719F0883752
S11313C021F0B0C0E92FE061BE2EB4FE0DC0FB2DAC
S11313D0F460BF2E09C034FE0AC0292F2660B22E45
S11313E006C028E030E005C020E130E002C020E182
S11313F032E0F801B7FE07C0608171818281938178
S11314000C5F1F4F06C06081718180E090E00E5F29
S11314101F4FA3010E94EE0A882E8618FB2DFF772A
S11314203F2E36FE0DC0232D2E7FA22E891458F494
S113143034FE0BC032FC09C0832D8E7EA82E05C05D
S1131440B82CA32C03C0B82C01C0B92CA4FE0FC027
S1131450FE01E80DF11D8081803321F49A2D997EDF
S1131460A92E09C0A2FE06C0B394B39404C08A2D69
S1131470867809F0B394A3FC11C0A0FE06C0B21490
S113148088F4280C922C9B180EC0B21460F4B60198
S113149080E290E00E94B20AB394F7CFB21418F439
S11314A02B1802C0982C212CA4FE10C0B60180E396
S11314B090E00E94B20AA2FE17C0A1FC03C088E714
S11314C090E002C088E590E0B6010CC08A2D8678D1
S11314D059F0A1FE02C08BE201C080E2A7FC8DE2BC
S11314E0B60190E00E94B20A891438F4B60180E390
S11314F090E00E94B20A9A94F7CF8A94F301E80D1F
S1131500F11D8081B60190E00E94B20A8110F5CFEE
S1131510222009F442CEB60180E290E00E94B20A91
S11315202A94F6CFF6018681978102C08FEF9FEF50
S11315302B96E2E10C94680BFC010590615070401D
S11315400110D8F7809590958E0F9F1F0895FC0188
S11315506150704001900110D8F7809590958E0FDE
S11315609F1F08950F931F93CF93DF93FB01238154
S113157021FD03C08FEF9FEF2CC022FF16C04681D0
S11315805781248135814217530744F4A081B181E6
S11315909D012F5F3F4F318320838C9326813781B8
S11315A02F5F3F4F3783268314C08B01EC01FB016F
S11315B00084F185E02D0995892BE1F6D801169672
S11315C08D919C911797019617969C938E931697DD
S11315D0CE01DF91CF911F910F910895FA01AA27AF
S11315E0283051F1203181F1E8946F936E7F6E5F62
S11315F07F4F8F4F9F4FAF4FB1E03ED0B4E03CD010
S1131600670F781F891F9A1FA11D680F791F8A1FF2
S1131610911DA11D6A0F711D811D911DA11D20D059
S113162009F468943F912AE0269F11243019305D13
S11316303193DEF6CF010895462F4770405D419304
S1131640B3E00FD0C9F7F6CF462F4F70405D4A3351
S113165018F0495D31FD4052419302D0A9F7EACF19
S1131660B4E0A6959795879577956795BA95C9F748
S113167000976105710508959B01AC010A2E06943B
S11316805795479537952795BA95C9F7620F731FF4
S1131690841F951FA01D08952F923F924F925F9231
S11316A06F927F928F929F92AF92BF92CF92DF926E
S11316B0EF92FF920F931F93CF93DF93CDB7DEB7D3
S11316C0CA1BDB0B0FB6F894DEBF0FBECDBF099467
S11316D02A88398848885F846E847D848C849B84BE
S11316E0AA84B984C884DF80EE80FD800C811B81CC
S11316F0AA81B981CE0FD11D0FB6F894DEBF0FBEFB
S10D1700CDBFED010895F894FFCF6A
S113170A3132334134353642373839432A30234467
S113171A2564002D002573256425302E3464005376
S113172A65742050617373776F72643A00456E74FE
S113173A65722050617373776F72643A00526967F5
S113174A68742050617373776F72640053616665BD
S113175A20697320556E6C6F636B65640057726FF2
S113176A6E672050617373776F726400547269658F
S113177A73206C6566743D00536166652069732045
S10B178A436C6F7365640000F9
S9030000FC
